S0100000656C657661646F722E73726563C2
S11300000C9434000C9451000C9451000C94510045
S11300100C9451000C9451000C9451000C94510018
S11300200C9451000C9451000C9451000C94510008
S11300300C9451000C9451000C9451000C945100F8
S11300400C9451000C9451000C9451000C945100E8
S11300500C9451000C9451000C9451000C945100D8
S11300600C9451000C94510011241FBECFEFD8E022
S1130070DEBFCDBF11E0A0E0B1E0E4E3F2E002C0F6
S113008005900D92AE31B107D9F721E0AEE1B1E0B0
S113009001C01D92AF31B207E1F70E9487000C94B2
S11300A018010C9400001092C00088E18093C100F4
S11300B086E08093C2001092C50087E68093C40056
S11300C00895CF93DF93FC012081222369F0DC01A2
S11300D01196E0ECF0E0C6ECD0E0908195FFFDCF06
S11300E028832D912111F9CFE0ECF0E0808185FF88
S11300F0FDCF8AE08093C600E0ECF0E0808185FFCC
S1130100FDCF8DE08093C600DF91CF9108958CE000
S11301108AB90E94530010E3C0ECD0E00F2EF6EC35
S1130120EF2EF12CF02D88818823ECF7F7018081E4
S113013080931E01113351F1123309F442C010337C
S113014009F063C0803349F480E091E00E946100CB
S113015087E091E00E94610060C0813339F45B9ACA
S113016089E091E00E94610011E357C05B9A89E045
S113017091E00E946100FFEF23ED80E3F150204005
S11301808040E1F700C0000012E347C0803339F437
S11301905A9A81E191E00E94610010E33EC08133EC
S11301A049F480E091E00E9461008AE191E00E94BC
S11301B0610033C05B9A89E091E00E94610012E320
S11301C02CC0803381F45A9A81E191E00E9461004D
S11301D09FEFE3EDF0E39150E040F040E1F700C021
S11301E0000010E31AC0813339F45A9A81E191E096
S11301F00E94610011E311C080E091E00E9461005F
S11302008CE191E00E94610008C080E091E00E94CE
S1130210610087E091E00E9461002FEF83ED90E39D
S1130220215080409040E1F700C000001BB87BCF14
S1070230F894FFCF6C
S113023450415241444F003000535542494E444FBB
S11102440044455343454E444F003100320000
S9030000FC
