:100000000C9434000C9451000C9451000C94510049
:100010000C9451000C9451000C9451000C9451001C
:100020000C9451000C9451000C9451000C9451000C
:100030000C9451000C9451000C9451000C945100FC
:100040000C9451000C9451000C9451000C945100EC
:100050000C9451000C9451000C9451000C945100DC
:100060000C9451000C94510011241FBECFEFD8E026
:10007000DEBFCDBF11E0A0E0B1E0E2E5F2E002C0FA
:1000800005900D92A230B107D9F721E0A2E0B1E0CE
:1000900001C01D92A430B207E1F70E94C5000C9484
:1000A00027010C9400001092B90088E48093B800F6
:1000B000089584EA8093BC00ECEBF0E08081882313
:1000C000ECF79091B900987F81E0983009F480E0D6
:1000D000089584E98093BC00ECEBF0E0808184FD1E
:1000E000FDCF0895880F680F6093BB0084E880936C
:1000F000BC00ECEBF0E080818823ECF79091B90034
:10010000987F81E0983109F480E008958093BB00E6
:1001100084E88093BC00ECEBF0E080818823ECF76E
:100120009091B900987F81E0983209F480E00895B9
:100130000E94590060E080E20E94720080910001FC
:1001400080950E9486000E9469000895189B1CC03B
:100150008FE39CE90197F1F700C000008091010155
:10016000809300018FEF809301010E9498009FEF20
:100170002BE782E9915020408040E1F700C0000069
:10018000109201010E949800089514B88FEF85B96C
:1001900080E387B90E945300C1E0D0E018E01092DC
:1001A000020180910101809300010E94980020913A
:1001B0000201CE01022E02C0880F991F0A94E2F7B5
:1001C000809580930101243011F40E94A6002FEF46
:1001D00089E698E1215080409040E1F700C000009E
:1001E000809102018F5F809302018830D0F22BC092
:1001F00081508093030180910101809300010E944E
:100200009800CE010090030102C0880F991F0A9444
:10021000E2F780958093010180910201853011F40D
:100220000E94A6002FEF89E698E12150804090407F
:10023000E1F700C00000809102018150809302012B
:100240008111D6CFACCF10930201812FD1CFF8947A
:02025000FFCFDE
:020252000101A8
:00000001FF
