:100000000C9434000C943E000C943E000C943E0082
:100010000C943E000C943E000C943E000C943E0068
:100020000C943E000C943E000C943E000C943E0058
:100030000C943E000C943E000C943E000C943E0048
:100040000C943E000C943E000C943E000C943E0038
:100050000C943E000C943E000C943E000C943E0028
:100060000C943E000C943E0011241FBECFEFD8E04C
:10007000DEBFCDBF0E944A000C948E000C9400009D
:100080008CE284B981E58CBD08958EBD0DB407FE68
:10009000FDCF08951AB88FEF8BB90E944000C1E0E0
:1000A0004B9B0AC08FE39CE90197F1F700C0000069
:1000B0008CB581608CBD09C08FE39CE90197F1F795
:1000C00000C000008CB58E7F8CBD4A9B0FC08FE3B3
:1000D0009CE90197F1F700C000002A988C2F0E943C
:1000E00045002A9ACC0F81F4C1E00EC08FE39CE951
:1000F0000197F1F700C000002A988C2F0E9445005C
:100100002A9AC69509F4C0E89FEF24E38CE0915049
:1001100020408040E1F700C00000C2CFF894FFCF3C
:00000001FF
