S00C00004C4D33352E7372656317
S11300000C9434000C9449000C9449000C9449005D
S11300100C9449000C9449000C9449000C94490038
S11300200C9449000C9449000C9449000C94490028
S11300300C9449000C9449000C9449000C94490018
S11300400C9449000C9449000C9449000C94490008
S11300500C9449000C9449000C9449000C944900F8
S11300600C9449000C94490011241FBECFEFD8E032
S1130070DEBFCDBF11E0A0E0B1E0E4E7F4E002C0F0
S113008005900D92A631B107D9F70E9412010C9484
S113009038020C9400002D9888230CF42D9A2C9887
S11300A086FD2C9A2B9885FD2B9A2A9884FD2A9AF2
S11300B0299A85E08A95F1F70000299885E08A95C8
S11300C0F1F700000895CF93C82F289A29980E9429
S11300D04B008C2F8295807F0E944B00CF91089516
S11300E00F931F93CF93DF9300D0CDB7DEB78C016E
S11300F01A821982E981FA81E80FF91F8081882325
S1130100C9F0E981FA81E00FF11F80810E94630048
S113011089819A8101969A8389838FE391E001977B
S1130120F1F700C00000E981FA81E00FF11F80813E
S11301308111E7CF0F900F90DF91CF911F910F9115
S11301400895CF93C82F289829980E944B008C2F8C
S11301508295807F0E944B00CF9108952FEF81EE0E
S113016094E0215080409040E1F700C000002898BE
S1130170299880E30E944B008FE39CE90197F1F7F3
S113018000C0000080E30E944B008FE193E00197E0
S1130190F1F700C0000080E30E944B008FE193E080
S11301A00197F1F700C0000088E20E944B008FE342
S11301B091E00197F1F700C0000088E20E94A100DD
S11301C08FE391E00197F1F700C0000088E00E94FE
S11301D0A1008FE391E00197F1F700C0000081E0F6
S11301E00E94A1008FE79EE30197F1F700C0000091
S11301F086E00E94A1008FE391E00197F1F700C02F
S113020000008CE00E94A1008FE391E00197F1F7D8
S113021000C00000089580E480937C0084E880930B
S11302207A000895CF93DF93CDB7DEB72A970FB640
S1130230F894DEBF0FBECDBF80E28AB98CE18BB9E2
S113024017B881E088B90E940B01259A249A239A51
S1130250229A219A209A0E94AE00EE24E394F12C73
S11302600F2EF2E3AF2EB12CF02D0F2EF2E38F2ED2
S1130270912CF02D412C512C22242394312C0AE76B
S113028010E00F2EF8E76F2E712CF02D4A990BC059
S11302908FE39CE90197F1F700C000009FEFA91AD2
S11302A0B90AE42CF52C4B990BC0EFE3FCE9319728
S11302B0F1F700C00000F1E0AF1AB108E42CF52C0E
S11302C04C9909C08FE39CE90197F1F700C0000045
S11302D04501E22CF32CF8018081806C80838FE847
S11302E091E00197F1F700C00000F801808184FFDC
S11302F0FCCF80818061808380818F7780838FE1D0
S113030093E00197F1F700C00000F301808191812F
S113031020813181A4EFB1E00E94F401382F292F0C
S1130320862F972FA32FB22F072E7AE0B595A79586
S1130330979587957A95D1F7702D6C014AE0BE01A7
S11303406F5F7F4F0E940302CE0101960E947000EE
S113035080E091E00E94700080EC0E94A1008FE395
S113036091E00197F1F700C0000091E0E916F10473
S113037061F487E091E00E9470004AE0BE016F5F83
S11303807F4FC4010E9403020EC0E114F10459F42A
S11303908FE091E00E9470004AE0BE016F5F7F4FE2
S11303A0C5010E940302CE0101960E94700080E004
S11303B091E00E947000EFEFF9E628E1E150F0408F
S11303C02040E1F700C0000081E00E94A1008FE717
S11303D09EE30197F1F700C00000C814D90414F09B
S11303E05D9A54CF5D9852CFA29FB001B39FC001D4
S11303F0A39F700D811D1124911DB29F700D811D4D
S11304001124911D0895BB274A3031F4992322F415
S1130410BDE2909581959F4F0C940F02BB27FB0181
S11304205527AA27880F991FAA1FA41710F0A41BE9
S113043083955051B9F7A05DAA3308F0A95DA19343
S1130440009779F7B111B1931192CB010C94280262
S1130450DC01FC01672F71917723E1F7329704C027
S11304607C916D9370836291AE17BF07C8F30895B2
S1070470F894FFCF2A
S113047420677261757300416C61726D6520004E72
S10904846F766F200000FA
S9030000FC
