:100000000C9434000C943E000C943E000C943E0082
:100010000C943E000C943E000C943E000C943E0068
:100020000C943E000C943E000C943E000C943E0058
:100030000C943E000C943E000C943E000C943E0048
:100040000C943E000C943E000C943E000C943E0038
:100050000C943E000C943E000C943E000C943E0028
:100060000C943E000C943E0011241FBECFEFD8E04C
:10007000DEBFCDBF0E9440000C9468000C940000CD
:100080001AB88FE084B98FEF8BB938E022E081E0B5
:1000900094E04F9902C025B901C035B94F9902C00B
:1000A00095B901C085B94F9902C035B901C025B9CC
:1000B0004F9902C085B901C095B985B94FEF59E68E
:1000C00068E1415050406040E1F700C00000E1CFDE
:0400D000F894FFCFD2
:00000001FF
