S01100007370695F736C6176652E737265634D
S11300000C9434000C9446000C9446000C94460066
S11300100C9446000C9446000C9446000C94460044
S11300200C9446000C9446000C9446000C94460034
S11300300C9446000C9446000C9446000C94460024
S11300400C9446000C9446000C9446000C94460014
S11300500C9446000C9446000C9446000C94460004
S11300600C9446000C94460011241FBECFEFD8E038
S1130070DEBFCDBF21E0A0E0B1E001C01D92A13000
S1130080B207E1F70E944D000C945B000C94000051
S11300900DB407FEFDCF8EB508958FEF8AB914B85D
S11300A085B91092C10080E48CBD0E944800809301
S10D00B000018BB9FACFF894FFCFDA
S9030000FC
